{
  "contractName": "Collateral",
  "abi": [
    {
      "constant": true,
      "inputs": [
        {
          "name": "",
          "type": "bytes32"
        }
      ],
      "name": "collateralDepositIndex",
      "outputs": [
        {
          "name": "",
          "type": "uint256"
        }
      ],
      "payable": false,
      "stateMutability": "view",
      "type": "function"
    },
    {
      "constant": true,
      "inputs": [
        {
          "name": "",
          "type": "bytes32"
        },
        {
          "name": "",
          "type": "uint8"
        }
      ],
      "name": "txidToOutputToRequestValid",
      "outputs": [
        {
          "name": "",
          "type": "bool"
        }
      ],
      "payable": false,
      "stateMutability": "view",
      "type": "function"
    },
    {
      "constant": true,
      "inputs": [],
      "name": "ADD_COLLATERAL_EXPIRY",
      "outputs": [
        {
          "name": "",
          "type": "uint256"
        }
      ],
      "payable": false,
      "stateMutability": "view",
      "type": "function"
    },
    {
      "constant": true,
      "inputs": [
        {
          "name": "",
          "type": "bytes32"
        }
      ],
      "name": "temporaryCollaterals",
      "outputs": [
        {
          "name": "refundableCollateral",
          "type": "uint256"
        },
        {
          "name": "seizableCollateral",
          "type": "uint256"
        },
        {
          "name": "unaccountedRefundableCollateral",
          "type": "uint256"
        }
      ],
      "payable": false,
      "stateMutability": "view",
      "type": "function"
    },
    {
      "constant": true,
      "inputs": [
        {
          "name": "",
          "type": "uint256"
        }
      ],
      "name": "requestsDetails",
      "outputs": [
        {
          "name": "loan",
          "type": "bytes32"
        },
        {
          "name": "finalized",
          "type": "bool"
        },
        {
          "name": "seizable",
          "type": "bool"
        },
        {
          "name": "p2wshAddress",
          "type": "bytes32"
        }
      ],
      "payable": false,
      "stateMutability": "view",
      "type": "function"
    },
    {
      "constant": true,
      "inputs": [
        {
          "name": "",
          "type": "bytes32"
        }
      ],
      "name": "collaterals",
      "outputs": [
        {
          "name": "refundableCollateral",
          "type": "uint256"
        },
        {
          "name": "seizableCollateral",
          "type": "uint256"
        },
        {
          "name": "unaccountedRefundableCollateral",
          "type": "uint256"
        }
      ],
      "payable": false,
      "stateMutability": "view",
      "type": "function"
    },
    {
      "constant": true,
      "inputs": [
        {
          "name": "",
          "type": "bytes32"
        }
      ],
      "name": "loanRequests",
      "outputs": [
        {
          "name": "refundRequestIDOneConf",
          "type": "uint256"
        },
        {
          "name": "refundRequestIDSixConf",
          "type": "uint256"
        },
        {
          "name": "seizeRequestIDOneConf",
          "type": "uint256"
        },
        {
          "name": "seizeRequestIDSixConf",
          "type": "uint256"
        }
      ],
      "payable": false,
      "stateMutability": "view",
      "type": "function"
    },
    {
      "constant": true,
      "inputs": [
        {
          "name": "",
          "type": "bytes32"
        }
      ],
      "name": "collateralDepositFinalizedIndex",
      "outputs": [
        {
          "name": "",
          "type": "uint256"
        }
      ],
      "payable": false,
      "stateMutability": "view",
      "type": "function"
    },
    {
      "constant": true,
      "inputs": [
        {
          "name": "",
          "type": "bytes32"
        },
        {
          "name": "",
          "type": "uint8"
        }
      ],
      "name": "txidToOutputIndexToCollateralDepositIndex",
      "outputs": [
        {
          "name": "",
          "type": "uint256"
        }
      ],
      "payable": false,
      "stateMutability": "view",
      "type": "function"
    },
    {
      "constant": true,
      "inputs": [],
      "name": "onDemandSpv",
      "outputs": [
        {
          "name": "",
          "type": "address"
        }
      ],
      "payable": false,
      "stateMutability": "view",
      "type": "function"
    },
    {
      "constant": true,
      "inputs": [
        {
          "name": "x",
          "type": "uint256"
        },
        {
          "name": "y",
          "type": "uint256"
        }
      ],
      "name": "cmul",
      "outputs": [
        {
          "name": "z",
          "type": "uint256"
        }
      ],
      "payable": false,
      "stateMutability": "pure",
      "type": "function"
    },
    {
      "constant": true,
      "inputs": [
        {
          "name": "",
          "type": "bytes32"
        },
        {
          "name": "",
          "type": "uint256"
        }
      ],
      "name": "collateralDeposits",
      "outputs": [
        {
          "name": "amount",
          "type": "uint256"
        },
        {
          "name": "finalized",
          "type": "bool"
        },
        {
          "name": "seizable",
          "type": "bool"
        },
        {
          "name": "expiry",
          "type": "uint256"
        }
      ],
      "payable": false,
      "stateMutability": "view",
      "type": "function"
    },
    {
      "constant": true,
      "inputs": [
        {
          "name": "",
          "type": "uint256"
        }
      ],
      "name": "finalRequestToInitialRequest",
      "outputs": [
        {
          "name": "",
          "type": "uint256"
        }
      ],
      "payable": false,
      "stateMutability": "view",
      "type": "function"
    },
    {
      "inputs": [
        {
          "name": "loans_",
          "type": "address"
        }
      ],
      "payable": false,
      "stateMutability": "nonpayable",
      "type": "constructor"
    },
    {
      "anonymous": false,
      "inputs": [
        {
          "indexed": false,
          "name": "_txid",
          "type": "bytes32"
        },
        {
          "indexed": false,
          "name": "_vout",
          "type": "bytes"
        },
        {
          "indexed": false,
          "name": "_requestID",
          "type": "uint256"
        },
        {
          "indexed": false,
          "name": "_outputIndex",
          "type": "uint8"
        }
      ],
      "name": "Spv",
      "type": "event"
    },
    {
      "anonymous": false,
      "inputs": [
        {
          "indexed": false,
          "name": "loan",
          "type": "bytes32"
        }
      ],
      "name": "RequestSpv",
      "type": "event"
    },
    {
      "anonymous": false,
      "inputs": [
        {
          "indexed": false,
          "name": "loan",
          "type": "bytes32"
        }
      ],
      "name": "CancelSpv",
      "type": "event"
    },
    {
      "constant": true,
      "inputs": [
        {
          "name": "loan",
          "type": "bytes32"
        }
      ],
      "name": "collateral",
      "outputs": [
        {
          "name": "",
          "type": "uint256"
        }
      ],
      "payable": false,
      "stateMutability": "view",
      "type": "function"
    },
    {
      "constant": true,
      "inputs": [
        {
          "name": "loan",
          "type": "bytes32"
        }
      ],
      "name": "refundableCollateral",
      "outputs": [
        {
          "name": "",
          "type": "uint256"
        }
      ],
      "payable": false,
      "stateMutability": "view",
      "type": "function"
    },
    {
      "constant": true,
      "inputs": [
        {
          "name": "loan",
          "type": "bytes32"
        }
      ],
      "name": "seizableCollateral",
      "outputs": [
        {
          "name": "",
          "type": "uint256"
        }
      ],
      "payable": false,
      "stateMutability": "view",
      "type": "function"
    },
    {
      "constant": true,
      "inputs": [
        {
          "name": "loan",
          "type": "bytes32"
        }
      ],
      "name": "temporaryRefundableCollateral",
      "outputs": [
        {
          "name": "",
          "type": "uint256"
        }
      ],
      "payable": false,
      "stateMutability": "view",
      "type": "function"
    },
    {
      "constant": true,
      "inputs": [
        {
          "name": "loan",
          "type": "bytes32"
        }
      ],
      "name": "temporarySeizableCollateral",
      "outputs": [
        {
          "name": "",
          "type": "uint256"
        }
      ],
      "payable": false,
      "stateMutability": "view",
      "type": "function"
    },
    {
      "constant": false,
      "inputs": [
        {
          "name": "p2wsh_",
          "type": "address"
        }
      ],
      "name": "setP2WSH",
      "outputs": [],
      "payable": false,
      "stateMutability": "nonpayable",
      "type": "function"
    },
    {
      "constant": false,
      "inputs": [
        {
          "name": "onDemandSpv_",
          "type": "address"
        }
      ],
      "name": "setOnDemandSpv",
      "outputs": [],
      "payable": false,
      "stateMutability": "nonpayable",
      "type": "function"
    },
    {
      "constant": false,
      "inputs": [],
      "name": "unsetOnDemandSpv",
      "outputs": [],
      "payable": false,
      "stateMutability": "nonpayable",
      "type": "function"
    },
    {
      "constant": false,
      "inputs": [
        {
          "name": "loan",
          "type": "bytes32"
        },
        {
          "name": "refundableCollateral_",
          "type": "uint256"
        },
        {
          "name": "seizableCollateral_",
          "type": "uint256"
        }
      ],
      "name": "setCollateral",
      "outputs": [],
      "payable": false,
      "stateMutability": "nonpayable",
      "type": "function"
    },
    {
      "constant": false,
      "inputs": [
        {
          "name": "_txid",
          "type": "bytes32"
        },
        {
          "name": "",
          "type": "bytes"
        },
        {
          "name": "_vout",
          "type": "bytes"
        },
        {
          "name": "_requestID",
          "type": "uint256"
        },
        {
          "name": "",
          "type": "uint8"
        },
        {
          "name": "_outputIndex",
          "type": "uint8"
        }
      ],
      "name": "spv",
      "outputs": [],
      "payable": false,
      "stateMutability": "nonpayable",
      "type": "function"
    },
    {
      "constant": false,
      "inputs": [
        {
          "name": "loan",
          "type": "bytes32"
        }
      ],
      "name": "requestSpv",
      "outputs": [],
      "payable": false,
      "stateMutability": "nonpayable",
      "type": "function"
    },
    {
      "constant": false,
      "inputs": [
        {
          "name": "loan",
          "type": "bytes32"
        }
      ],
      "name": "cancelSpv",
      "outputs": [],
      "payable": false,
      "stateMutability": "nonpayable",
      "type": "function"
    }
  ],
  "bytecode": "0x608060405234801561001057600080fd5b50604051612cb8380380612cb88339818101604052602081101561003357600080fd5b50516001600160a01b0381166100aa57604080517f08c379a000000000000000000000000000000000000000000000000000000000815260206004820152601e60248201527f4c6f616e732061646472657373206d757374206265206e6f6e2d7a65726f0000604482015290519081900360640190fd5b600180546001600160a01b039092166001600160a01b0319928316179055600d805490911633179055612bd6806100e26000396000f3fe608060405234801561001057600080fd5b50600436106101735760003560e01c806383c5cc06116100de578063a00ba4f811610097578063e9474a4411610071578063e9474a441461052a578063f7837eb71461054e578063faecb39f14610571578063fb7b250c1461059457610173565b8063a00ba4f8146104c1578063b32fefbf146104e7578063d973739e1461050457610173565b806383c5cc06146103e15780638fa6f578146103fe57806395db59571461041b5780639a7e74011461045e5780639c226c54146104875780639e7c565e146104a457610173565b80632e4606b1116101305780632e4606b114610319578063305f9cb2146103365780634f961bec146103535780635be765b81461035b5780635c1b3eb514610378578063673ab309146103bb57610173565b806301023b9d146101785780630140356d146101a75780630ab316cc1461027f5780632700f685146102b957806328dcc7c0146102c15780632e2cf9ca146102fc575b600080fd5b6101956004803603602081101561018e57600080fd5b50356105b1565b60408051918252519081900360200190f35b61027d600480360360c08110156101bd57600080fd5b81359190810190604081016020820135600160201b8111156101de57600080fd5b8201836020820111156101f057600080fd5b803590602001918460018302840111600160201b8311171561021157600080fd5b919390929091602081019035600160201b81111561022e57600080fd5b82018360208201111561024057600080fd5b803590602001918460018302840111600160201b8311171561026157600080fd5b919350915080359060ff602082013581169160400135166105c3565b005b6102a56004803603604081101561029557600080fd5b508035906020013560ff16610d5d565b604080519115158252519081900360200190f35b610195610d7d565b6102de600480360360208110156102d757600080fd5b5035610d83565b60408051938452602084019290925282820152519081900360600190f35b6101956004803603602081101561031257600080fd5b5035610da4565b61027d6004803603602081101561032f57600080fd5b5035610db9565b6101956004803603602081101561034c57600080fd5b5035611758565b61027d61176d565b6101956004803603602081101561037157600080fd5b503561180f565b6103956004803603602081101561038e57600080fd5b5035611821565b604080519485529215156020850152901515838301526060830152519081900360800190f35b61027d600480360360208110156103d157600080fd5b50356001600160a01b031661184f565b6102de600480360360208110156103f757600080fd5b5035611947565b6101956004803603602081101561041457600080fd5b5035611968565b6104386004803603602081101561043157600080fd5b503561197d565b604080519485526020850193909352838301919091526060830152519081900360800190f35b61027d6004803603606081101561047457600080fd5b50803590602081013590604001356119a4565b6101956004803603602081101561049d57600080fd5b5035611a05565b610195600480360360208110156104ba57600080fd5b5035611a17565b610195600480360360408110156104d757600080fd5b508035906020013560ff16611b6d565b61027d600480360360208110156104fd57600080fd5b5035611b8a565b61027d6004803603602081101561051a57600080fd5b50356001600160a01b0316611f05565b610532611ffd565b604080516001600160a01b039092168252519081900360200190f35b6101956004803603604081101561056457600080fd5b508035906020013561200c565b6103956004803603604081101561058757600080fd5b5080359060200135612039565b610195600480360360208110156105aa57600080fd5b5035612072565b60096020526000908152604090205481565b6002546001600160a01b0316331461060c5760405162461bcd60e51b815260040180806020018281038252603581526020018061299d6035913960400191505060405180910390fd5b876106485760405162461bcd60e51b8152600401808060200182810382526027815260200180612a496027913960400191505060405180910390fd5b6000801b61068b86868080601f01602080910402602001604051908101604052809392919081815260200183838082843760009201919091525061208492505050565b14156106c85760405162461bcd60e51b8152600401808060200182810382526027815260200180612ae06027913960400191505060405180910390fd5b606061070b86868080601f0160208091040260200160405190810160405280939291908181526020018383808284376000920191909152508692506120a2915050565b905060006107188261212d565b6000868152600560205260409020805460029091015467ffffffffffffffff9290921692509061074f61074a8561215a565b612084565b1461078b5760405162461bcd60e51b81526004018080602001828103825260278152602001806127ec6027913960400191505060405180910390fd5b60008681526005602052604090206001015460ff1615610b6f5760008b8152600c6020908152604080832060ff808916855292529091205416156109a857600086815260056020526040902060010154610100900460ff161561084857600081815260036020526040902060010154610804908361237c565b6000828152600360209081526040808320600190810194909455600790915290200154610831908361238c565b60008281526007602052604090206001015561095c565b6001546040805163080120bd60e01b81526004810184905290516001600160a01b039092169163080120bd91602480820192602092909190829003018186803b15801561089457600080fd5b505afa1580156108a8573d6000803e3d6000fd5b505050506040513d60208110156108be57600080fd5b505160008281526003602052604090206001015410610904576000818152600360205260409020546108f0908361237c565b600082815260036020526040902055610933565b600081815260036020526040902060020154610920908361237c565b6000828152600360205260409020600201555b60008181526007602052604090205461094c908361238c565b6000828152600760205260409020555b60008181526008602090815260408083208e8452600b835281842060ff89168552835281842054845290915290206001908101805460ff191690911790556109a38161239c565b610b6a565b6109bb6109b482611a17565b606461242a565b8210610b6a5760008b8152600c6020908152604080832060ff8089168552908352818420805460ff1916600190811790915585855260098452828520548b86526005909452919093200154610a1b92849291869161010090910416612441565b60016008600083815260200190815260200160002060006009600085815260200190815260200160002054815260200190815260200160002060010160006101000a81548160ff0219169083151502179055506009600082815260200190815260200160002054600b60008d815260200190815260200160002060008660ff1660ff16815260200190815260200160002081905550610ace6009600083815260200190815260200160002054600161237c565b600082815260096020908152604080832093909355888252600590522060010154610100900460ff1615610b2f57600081815260036020526040902060010154610b18908361237c565b600082815260036020526040902060010155610b58565b600081815260036020526040902054610b48908361237c565b6000828152600360205260409020555b610b6181612486565b610b6a8161239c565b610cd2565b610b7b6109b482611a17565b8210158015610ba6575060008b8152600c6020908152604080832060ff808916855292529091205416155b15610cd25760008b8152600c6020908152604080832060ff8089168552908352818420805460ff1916600190811790915585855260098452828520548b86526005909452919093200154610c0592849291869161010090910416612441565b6000818152600960208181526040808420548f8552600b835281852060ff8a16865283529084208190559284905252610c3f90600161237c565b600082815260096020908152604080832093909355888252600590522060010154610100900460ff1615610ca057600081815260076020526040902060010154610c89908361237c565b600082815260076020526040902060010155610cc9565b600081815260076020526040902054610cb9908361237c565b6000828152600760205260409020555b610cd281612486565b7f33d2eb3a69a56f0bfe0fa46c954ff0e8c1da9fd4ecd87a1fb3e104c367eaccd28b8989898860405180868152602001806020018481526020018360ff1660ff1681526020018281038252868682818152602001925080828437600083820152604051601f909101601f19169092018290039850909650505050505050a15050505050505050505050565b600c60209081526000928352604080842090915290825290205460ff1681565b61384081565b60076020526000908152604090208054600182015460029092015490919083565b6000818152600760205260409020545b919050565b6001546001600160a01b03163314610e025760405162461bcd60e51b815260040180806020018281038252603f815260200180612813603f913960400191505060405180910390fd5b6000805460408051630e734f6360e01b8152600481018590526024810184905290516001600160a01b0390921691630e734f63916044808201928692909190829003018186803b158015610e5557600080fd5b505afa158015610e69573d6000803e3d6000fd5b505050506040513d6000823e601f3d908101601f191682016040908152811015610e9257600080fd5b810190808051600160201b811115610ea957600080fd5b82016020810184811115610ebc57600080fd5b8151600160201b811182820187101715610ed557600080fd5b505050602001516000805460408051630e734f6360e01b8152600481018990526001602482015290519396509194506001600160a01b03169250630e734f639160448083019286929190829003018186803b158015610f3357600080fd5b505afa158015610f47573d6000803e3d6000fd5b505050506040513d6000823e601f3d908101601f191682016040908152811015610f7057600080fd5b810190808051600160201b811115610f8757600080fd5b82016020810184811115610f9a57600080fd5b8151600160201b811182820187101715610fb357600080fd5b50505060200151925060009150610fce90506109b485611a17565b600254604080516201100160ed1b602080830191909152602380830189905283518084039091018152604383019384905262cf5d8560e41b90935267ffffffffffffffff851660878301523060a78301819052600160c7840181905260a060478501908152600060e7860181905260e06067870190815287516101278801528751999a5090986001600160a01b0390981697630cf5d85097968b9684939261014790920191908901908083838f5b8381101561109457818101518382015260200161107c565b50505050905090810190601f1680156110c15780820380516001836020036101000a031916815260200191505b509650505050505050602060405180830381600087803b1580156110e457600080fd5b505af11580156110f8573d6000803e3d6000fd5b505050506040513d602081101561110e57600080fd5b5051600254604080516201100160ed1b60208281019190915260238083018a905283518084039091018152604383019384905262cf5d8560e41b90935267ffffffffffffffff871660878301523060a78301819052600660c7840181905260a060478501908152600060e7860181905260e06067870190815287516101278801528751999a5090986001600160a01b0390981697630cf5d85097968c9684939261014790920191908901908083838f5b838110156111d65781810151838201526020016111be565b50505050905090810190601f1680156112035780820380516001836020036101000a031916815260200191505b509650505050505050602060405180830381600087803b15801561122657600080fd5b505af115801561123a573d6000803e3d6000fd5b505050506040513d602081101561125057600080fd5b5051600254604080516201100160ed1b60208281019190915260238083018a905283518084039091018152604383019384905262cf5d8560e41b90935267ffffffffffffffff881660878301523060a78301819052600160c7840181905260a060478501908152600060e7860181905260e06067870190815287516101278801528751999a5090986001600160a01b0390981697630cf5d85097968d9684939261014790920191908901908083838f5b83811015611318578181015183820152602001611300565b50505050905090810190601f1680156113455780820380516001836020036101000a031916815260200191505b509650505050505050602060405180830381600087803b15801561136857600080fd5b505af115801561137c573d6000803e3d6000fd5b505050506040513d602081101561139257600080fd5b5051600254604080516201100160ed1b60208281019190915260238083018b905283518084039091018152604383019384905262cf5d8560e41b90935267ffffffffffffffff891660878301523060a78301819052600660c7840181905260a060478501908152600060e7860181905260e06067870190815287516101278801528751999a5090986001600160a01b0390981697630cf5d85097968e9684939261014790920191908901908083838f5b8381101561145a578181015183820152602001611442565b50505050905090810190601f1680156114875780820380516001836020036101000a031916815260200191505b509650505050505050602060405180830381600087803b1580156114aa57600080fd5b505af11580156114be573d6000803e3d6000fd5b505050506040513d60208110156114d457600080fd5b8101908080519060200190929190505050905083600460008a81526020019081526020016000206000018190555082600460008a81526020019081526020016000206001018190555081600460008a81526020019081526020016000206002018190555080600460008a81526020019081526020016000206003018190555087600560008681526020019081526020016000206000018190555086600560008681526020019081526020016000206002018190555087600560008581526020019081526020016000206000018190555060016005600085815260200190815260200160002060010160006101000a81548160ff02191690831515021790555086600560008581526020019081526020016000206002018190555083600660008581526020019081526020016000208190555087600560008481526020019081526020016000206000018190555060016005600084815260200190815260200160002060010160016101000a81548160ff02191690831515021790555085600560008481526020019081526020016000206002018190555087600560008381526020019081526020016000206000018190555060016005600083815260200190815260200160002060010160016101000a81548160ff02191690831515021790555060016005600083815260200190815260200160002060010160006101000a81548160ff0219169083151502179055508560056000838152602001908152602001600020600201819055508160066000838152602001908152602001600020819055507fe6ebf0627b3093cf927ca3cab490d80939ffaca69dc9913527a3c178a0876e1d886040518082815260200191505060405180910390a15050505050505050565b60009081526003602052604090206001015490565b600d546001600160a01b031633146117b65760405162461bcd60e51b81526004018080602001828103825260388152602001806129276038913960400191505060405180910390fd5b6002546001600160a01b03166117fd5760405162461bcd60e51b815260040180806020018281038252603e8152602001806128e9603e913960400191505060405180910390fd5b600280546001600160a01b0319169055565b60009081526003602052604090205490565b600560205260009081526040902080546001820154600290920154909160ff80821692610100909204169084565b600d546001600160a01b031633146118985760405162461bcd60e51b81526004018080602001828103825260388152602001806129276038913960400191505060405180910390fd5b6002546001600160a01b0316156118e05760405162461bcd60e51b8152600401808060200182810382526042815260200180612a9e6042913960600191505060405180910390fd5b6001600160a01b0381166119255760405162461bcd60e51b815260040180806020018281038252603a8152602001806129d2603a913960400191505060405180910390fd5b600280546001600160a01b0319166001600160a01b0392909216919091179055565b60036020526000908152604090208054600182015460029092015490919083565b60009081526007602052604090206001015490565b60046020526000908152604090208054600182015460028301546003909301549192909184565b6001546001600160a01b031633146119ed5760405162461bcd60e51b815260040180806020018281038252603d815260200180612a0c603d913960400191505060405180910390fd5b60009283526003602052604090922090815560010155565b600a6020526000908152604090205481565b6000818152600a6020908152604080832054600990925282205414801590611ae157506001546040805163080120bd60e01b81526004810185905290516001600160a01b039092169163080120bd91602480820192602092909190829003018186803b158015611a8657600080fd5b505afa158015611a9a573d6000803e3d6000fd5b505050506040513d6020811015611ab057600080fd5b505160008381526003602090815260408083206001908101546007909352922090910154611ade919061237c565b10155b8015611b0f57506000828152600860209081526040808320600a835281842054845290915290206002015442105b15611b5857611b51611b31611b238461180f565b611b2c85611758565b61237c565b60008481526007602052604090208054600190910154611b2c919061237c565b9050610db4565b611b51611b648361180f565b611b2c84611758565b600b60209081526000928352604080842090915290825290205481565b6001546001600160a01b03163314611bd35760405162461bcd60e51b815260040180806020018281038252603e81526020018061295f603e913960400191505060405180910390fd5b6002546000828152600460208181526040808420548151630c054e5360e21b815293840152516001600160a01b0390941693633015394c936024808501948390030190829087803b158015611c2757600080fd5b505af1158015611c3b573d6000803e3d6000fd5b505050506040513d6020811015611c5157600080fd5b5051611c8e5760405162461bcd60e51b81526004018080602001828103825260338152602001806128b66033913960400191505060405180910390fd5b6002546000828152600460208181526040808420600101548151630c054e5360e21b815293840152516001600160a01b0390941693633015394c936024808501948390030190829087803b158015611ce557600080fd5b505af1158015611cf9573d6000803e3d6000fd5b505050506040513d6020811015611d0f57600080fd5b5051611d4c5760405162461bcd60e51b8152600401808060200182810382526033815260200180612b396033913960400191505060405180910390fd5b600280546000838152600460208181526040808420909501548551630c054e5360e21b81529283015293516001600160a01b0390931693633015394c9360248084019492939192918390030190829087803b158015611daa57600080fd5b505af1158015611dbe573d6000803e3d6000fd5b505050506040513d6020811015611dd457600080fd5b5051611e115760405162461bcd60e51b8152600401808060200182810382526032815260200180612b076032913960400191505060405180910390fd5b6002546000828152600460208181526040808420600301548151630c054e5360e21b815293840152516001600160a01b0390941693633015394c936024808501948390030190829087803b158015611e6857600080fd5b505af1158015611e7c573d6000803e3d6000fd5b505050506040513d6020811015611e9257600080fd5b5051611ecf5760405162461bcd60e51b81526004018080602001828103825260328152602001806128526032913960400191505060405180910390fd5b6040805182815290517f5091bb0370643dc97f42cea6349961ea465b7271e1a7ac8f1a5e2115b54dd07e9181900360200190a150565b600d546001600160a01b03163314611f4e5760405162461bcd60e51b81526004018080602001828103825260328152602001806128846032913960400191505060405180910390fd5b6000546001600160a01b031615611f965760405162461bcd60e51b8152600401808060200182810382526036815260200180612b6c6036913960400191505060405180910390fd5b6001600160a01b038116611fdb5760405162461bcd60e51b815260040180806020018281038252602e815260200180612a70602e913960400191505060405180910390fd5b600080546001600160a01b0319166001600160a01b0392909216919091179055565b6002546001600160a01b031681565b60006305f5e10061202a6120208585612588565b6302faf08061237c565b8161203157fe5b049392505050565b6008602090815260009283526040808420909152908252902080546001820154600290920154909160ff80821692610100909204169084565b60066020526000908152604090205481565b80516000908290612099575060009050610db4565b50506020015190565b60606000816001825b8560ff168160ff1610156120ea576120d18283895103896125ac9092919063ffffffff16565b92506120dc8361266a565b9350908301906001016120ab565b506121038182885103886125ac9092919063ffffffff16565b915061210e8261266a565b925061212186828563ffffffff6125ac16565b93505050505b92915050565b6000606061213a836126f7565b905060606121478261270c565b905061215281612799565b949350505050565b606061216f826009600163ffffffff6125ac16565b60008151811061217b57fe5b016020015160f81c61220b5760006002612194846127d6565b6000815181106121a057fe5b016020015160f81c0360ff169050806121c284600a600163ffffffff6125ac16565b6000815181106121ce57fe5b016020015160f81c146121f1575050604080516020810190915260008152610db4565b61220383600b8363ffffffff6125ac16565b915050610db4565b6000612220836008600363ffffffff6125ac16565b805160209091012060408051621976a960e81b815290519081900360030190209091508114156122e95761225d83600b600163ffffffff6125ac16565b60008151811061226957fe5b60209101015160f81c60141415806122bb5750604051808061222b60f21b815250600201905060405180910390206122b160028551036002866125ac9092919063ffffffff16565b8051906020012014155b156122d6575050604080516020810190915260008152610db4565b61220383600c601463ffffffff6125ac16565b604080516205ea4560ea1b8152905190819003600301902081141561236657825161232190849060001901600163ffffffff6125ac16565b60008151811061232d57fe5b60209101015160f81c608714612353575050604080516020810190915260008152610db4565b61220383600b601463ffffffff6125ac16565b5050604080516020810190915260008152919050565b8082018281101561212757600080fd5b8082038281111561212757600080fd5b6000818152600a60205260409020545b6000828152600960205260409020548111612426576000828152600860209081526040808320848452909152902060019081015460ff1615151415612419576000828152600a602052604090205461240590600161237c565b6000838152600a602052604090205561241e565b612426565b6001016123ac565b5050565b600080821161243857600080fd5b81838161203157fe5b6000938452600860209081526040808620948652939052919092209182556001820180549115156101000261ff00199092169190911790554261384001600290910155565b6001546040805163080120bd60e01b81526004810184905290516001600160a01b039092169163080120bd91602480820192602092909190829003018186803b1580156124d257600080fd5b505afa1580156124e6573d6000803e3d6000fd5b505050506040513d60208110156124fc57600080fd5b50516000828152600360209081526040808320600190810154600790935292209091015461252a919061237c565b10158015612548575060008181526003602052604090206002015415155b15612585576000818152600360205260409020805460029091015461256d919061237c565b60008281526003602052604081209182556002909101555b50565b60008115806125a3575050808202828282816125a057fe5b04145b61212757600080fd5b6060818301845110156125fc576040805162461bcd60e51b8152602060048201526013602482015272536c696365206f7574206f6620626f756e647360681b604482015290519081900360640190fd5b60608215801561261757604051915060208201604052612661565b6040519150601f8416801560200281840101858101878315602002848b0101015b81831015612650578051835260209283019201612638565b5050858452601f01601f1916604052505b50949350505050565b600080612680836008600163ffffffff6125ac16565b60008151811061268c57fe5b016020015160f81c905060fd81106126eb576040805162461bcd60e51b815260206004820181905260248201527f4d756c74692d6279746520566172496e7473206e6f7420737570706f72746564604482015290519081900360640190fd5b60090160ff1692915050565b6060612127826000600863ffffffff6125ac16565b60608082516040519080825280601f01601f19166020018201604052801561273b576020820181803883390190505b50905060005b83518110156127925783818151811061275657fe5b602001015160f81c60f81b82600183875103038151811061277357fe5b60200101906001600160f81b031916908160001a905350600101612741565b5092915050565b600080805b8351811015612792578060010184510360080260020a8482815181106127c057fe5b016020015160f81c02919091019060010161279e565b6060612127826008600163ffffffff6125ac1656fe436f6c6c61746572616c2e7370763a20496e636f72726563742050325753482061646472657373436f6c6c61746572616c2e726571756573745370763a204f6e6c7920746865206c6f616e7320636f6e74726163742063616e20706572666f726d2074686973436f6c6c61746572616c2e63616e63656c5370763a207365697a65526571756573744944536978436f6e66206661696c65644c6f616e732e73657450325753483a204f6e6c7920746865206465706c6f7965722063616e20706572666f726d2074686973436f6c6c61746572616c2e63616e63656c5370763a20726566756e645265717565737449444f6e65436f6e66206661696c65644c6f616e732e7365744f6e44656d616e645370763a20546865204f6e44656d616e64537076206164647265737320686173206e6f74206265656e207365744c6f616e732e7365744f6e44656d616e645370763a204f6e6c7920746865206465706c6f7965722063616e20706572666f726d2074686973436f6c6c61746572616c2e63616e63656c5370763a204f6e6c7920746865206c6f616e7320636f6e74726163742063616e20706572666f726d2074686973436f6c6c61746572616c2e7370763a204f6e6c7920746865206f6e44656d616e645370762063616e20706572666f726d20746869734c6f616e732e7365744f6e44656d616e645370763a204f6e44656d616e645370762061646472657373206d757374206265206e6f6e2d7a65726f4c6f616e732e736574436f6c6c61746572616c3a204f6e6c7920746865206c6f616e7320636f6e74726163742063616e20706572666f726d2074686973436f6c6c61746572616c2e7370763a20747869642073686f756c64206265206e6f6e2d7a65726f4c6f616e732e73657450325753483a2050325753482061646472657373206d757374206265206e6f6e2d7a65726f4c6f616e732e7365744f6e44656d616e645370763a20546865204f6e44656d616e6453707620616464726573732068617320616c7265616479206265656e20736574436f6c6c61746572616c2e7370763a20766f75742073686f756c64206265206e6f6e2d7a65726f436f6c6c61746572616c2e63616e63656c5370763a207365697a655265717565737449444f6e65436f6e66206661696c6564436f6c6c61746572616c2e63616e63656c5370763a20726566756e64526571756573744944536978436f6e66206661696c65644c6f616e732e73657450325753483a2054686520503257534820616464726573732068617320616c7265616479206265656e20736574a265627a7a7230582071ac40250fc74f3176520b2909b0c60ba75e66b745ee68b126c7d04596e6655764736f6c634300050a0032",
  "source": "pragma solidity 0.5.10;\n\nimport {BytesLib} from \"@summa-tx/bitcoin-spv-sol/contracts/BytesLib.sol\";\nimport {BTCUtils} from \"@summa-tx/bitcoin-spv-sol/contracts/BTCUtils.sol\";\n\nimport './Loans.sol';\nimport './P2WSHInterface.sol';\nimport './ISPVRequestManager.sol';\nimport './DSMath.sol';\n\n/**\n * @title Atomic Loans Collateral Contract\n * @author Atomic Loans\n */\ncontract Collateral is DSMath {\n    P2WSHInterface p2wsh;\n    Loans loans;\n    ISPVRequestManager public onDemandSpv;\n\n    uint256 public constant ADD_COLLATERAL_EXPIRY = 4 hours;\n\n    mapping (bytes32 => CollateralDetails)   public collaterals;\n    mapping (bytes32 => LoanRequests)        public loanRequests;\n    mapping (uint256 => RequestDetails)      public requestsDetails;\n    mapping (uint256 => uint256)             public finalRequestToInitialRequest;\n\n    mapping (bytes32 => CollateralDetails)                     public temporaryCollaterals;\n    mapping (bytes32 => mapping(uint256 => CollateralDeposit)) public collateralDeposits;\n    mapping (bytes32 => uint256)                               public collateralDepositIndex;\n    mapping (bytes32 => uint256)                               public collateralDepositFinalizedIndex;\n\n    mapping (bytes32 => mapping(uint8 => uint256))             public txidToOutputIndexToCollateralDepositIndex;\n    mapping (bytes32 => mapping(uint8 => bool))                public txidToOutputToRequestValid;\n\n    address deployer;\n\n    /**\n     * @notice Container for the current collateral info\n     * @member refundableCollateral Amount of refundable collateral in sats\n     * @member seizableCollateral Amount of seizable collateral in sats\n     * @member unaccountedRefundableCollateral Amount of unnacounted refundable collateral in sats (used when minSeizableCollateral is not met)\n     */\n    struct CollateralDetails {\n        uint256 refundableCollateral;\n        uint256 seizableCollateral;\n        uint256 unaccountedRefundableCollateral; // RefundableCollateral that's not accounted for since minSeizableCollateral is not satisfied\n    }\n\n    /**\n     * @notice Container for a collateral deposit from spv relay\n     * @member amount Amount of collateral to deposited in sats\n     * @member finalized Indicates whether the collateral deposit proof has 6 confirmations\n     * @member seizable Indicates whether the collateral deposit is seizable\n     * @member expiry Timestamp when collateral deposit is no longer valid (4 hours since 6 confirmations should be received by then)\n     */\n    struct CollateralDeposit {\n        uint256 amount;\n        bool    finalized; // 6 confirmations\n        bool    seizable;\n        uint256 expiry;\n    }\n\n    /**\n     * @notice Container for a spv relay request\n     * @member loan The Id of a Loan\n     * @member finalized Indicates whether the collateral request is for a proof with 6 confirmations\n     * @member seizable Indicates whether the collateral request is for a proof with seizable collateral\n     * @member p2wshAddress P2WSH Address of the collateral request\n     */\n    struct RequestDetails {\n        bytes32 loan;\n        bool    finalized;\n        bool    seizable;\n        bytes32 p2wshAddress;\n    }\n\n    /**\n     * @notice Container for a spv relay requests\n     * @member refundRequestIDOneConf Request ID for Refundable Collateral Proof with One Confirmation\n     * @member refundRequestIDSixConf Request ID for Refundable Collateral Proof with Six Confirmations\n     * @member seizeRequestIDOneConf Request ID for Seizable Collateral Proof with One Confirmation\n     * @member seizeRequestIDSixConf Request ID for Seizable Collateral Proof with Six Confirmations\n     */\n    struct LoanRequests {\n        uint256 refundRequestIDOneConf;\n        uint256 refundRequestIDSixConf;\n        uint256 seizeRequestIDOneConf;\n        uint256 seizeRequestIDSixConf;\n    }\n\n    event Spv(bytes32 _txid, bytes _vout, uint256 _requestID, uint8 _outputIndex);\n\n    event RequestSpv(bytes32 loan);\n\n    event CancelSpv(bytes32 loan);\n\n    /**\n     * @notice Get the Collateral of a Loan\n     * @param loan The Id of a Loan\n     * @return Amount of collateral backing the loan (in sats)\n     */\n    function collateral(bytes32 loan) public view returns (uint256) {\n        // if the number of 6 conf txs spv proofs != the number of 1 conf txs spv proofs (this means temporary collateral is relevant) and\n        // all seizable collateral is >= minSeizableCollateral (make sure seizableCollateral is satisfied before refundableCollateral) and\n        // current time < 4 hour expiry on latest 1 conf tx spv proof (make sure reorg isn't occuring)\n        // then return all collateral including refundableCollateral, seizableCollateral, temporaryRefundableCollateral, temporarySeizableCollateral\n        // otherwise, only return refundable and seizable collateral\n        if (collateralDepositIndex[loan] != collateralDepositFinalizedIndex[loan] &&\n            add(collaterals[loan].seizableCollateral, temporaryCollaterals[loan].seizableCollateral) >= loans.minSeizableCollateral(loan) &&\n            now < collateralDeposits[loan][collateralDepositFinalizedIndex[loan]].expiry) {\n            return add(add(refundableCollateral(loan), seizableCollateral(loan)), add(temporaryCollaterals[loan].refundableCollateral, temporaryCollaterals[loan].seizableCollateral));\n        } else {\n            return add(refundableCollateral(loan), seizableCollateral(loan));\n        }\n    }\n\n    /**\n     * @notice Get the Refundable Collateral of a Loan\n     * @param loan The Id of a Loan\n     * @return Amount of refundable collateral backing the loan (in sats)\n     */\n    function refundableCollateral(bytes32 loan) public view returns (uint256) {\n        return collaterals[loan].refundableCollateral;\n    }\n\n    /**\n     * @notice Get the Seizable Collateral of a Loan\n     * @param loan The Id of a Loan\n     * @return Amount of seizable collateral backing the loan (in sats)\n     */\n    function seizableCollateral(bytes32 loan) public view returns (uint256) {\n        return collaterals[loan].seizableCollateral;\n    }\n\n    /**\n     * @notice Get the Temporary Refundable Collateral of a Loan\n     * @dev Represents the amount of refundable collateral that has been locked and only has 1 confirmation, where 6 confirmations hasn't been received yet\n     * @param loan The Id of a Loan\n     * @return Amount of temporary refundable collateral backing the loan (in sats)\n     */\n    function temporaryRefundableCollateral(bytes32 loan) external view returns (uint256) {\n        return temporaryCollaterals[loan].refundableCollateral;\n    }\n\n    /**\n     * @notice Get the Temporary Seizable Collateral of a Loan\n     * @dev Represents the amount of seizable collateral that has been locked and only has 1 confirmation, where 6 confirmations hasn't been received yet\n     * @param loan The Id of a Loan\n     * @return Amount of temporary seizable collateral backing the loan (in sats)\n     */\n    function temporarySeizableCollateral(bytes32 loan) external view returns (uint256) {\n        return temporaryCollaterals[loan].seizableCollateral;\n    }\n\n    /**\n     * @notice Construct a new Collateral contract\n     * @param loans_ The address of the Loans contract\n     */\n    constructor (Loans loans_) public {\n        require(address(loans_) != address(0), \"Loans address must be non-zero\");\n\n        loans = loans_;\n        deployer = msg.sender;\n    }\n\n    /**\n     * @notice Sets P2WSH contract\n     * @param p2wsh_ Address of P2WSH contract\n     */\n    function setP2WSH(P2WSHInterface p2wsh_) external {\n        require(msg.sender == deployer, \"Loans.setP2WSH: Only the deployer can perform this\");\n        require(address(p2wsh) == address(0), \"Loans.setP2WSH: The P2WSH address has already been set\");\n        require(address(p2wsh_) != address(0), \"Loans.setP2WSH: P2WSH address must be non-zero\");\n        p2wsh = p2wsh_;\n    }\n\n    /**\n     * @notice Sets OnDemandSpv contract address\n     * @param onDemandSpv_ Address of OnDemandSpv contract\n     */\n    function setOnDemandSpv(ISPVRequestManager onDemandSpv_) external {\n        require(msg.sender == deployer, \"Loans.setOnDemandSpv: Only the deployer can perform this\");\n        require(address(onDemandSpv) == address(0), \"Loans.setOnDemandSpv: The OnDemandSpv address has already been set\");\n        require(address(onDemandSpv_) != address(0), \"Loans.setOnDemandSpv: OnDemandSpv address must be non-zero\");\n        onDemandSpv = onDemandSpv_;\n    }\n\n    /**\n     * @notice Unset OnDemandSpv contract address\n     */\n    function unsetOnDemandSpv() external {\n        require(msg.sender == deployer, \"Loans.setOnDemandSpv: Only the deployer can perform this\");\n        require(address(onDemandSpv) != address(0), \"Loans.setOnDemandSpv: The OnDemandSpv address has not been set\");\n        onDemandSpv = ISPVRequestManager(address(0));\n    }\n\n    /**\n     * @notice Sets current Collateral Amount for a Loan\n     * @param loan ID for a Loan\n     * @param refundableCollateral_ Amount of refundable collateral to update in sats\n     * @param seizableCollateral_ Amount of seizable collateral to update in sats\n     */\n    function setCollateral(bytes32 loan, uint256 refundableCollateral_, uint256 seizableCollateral_) external {\n        require(msg.sender == address(loans), \"Loans.setCollateral: Only the loans contract can perform this\");\n\n        collaterals[loan].refundableCollateral = refundableCollateral_;\n        collaterals[loan].seizableCollateral = seizableCollateral_;\n    }\n\n    /**\n     * @notice Consumer for Bitcoin transaction information\n     * @dev Handles Bitcoin events that have been validated by the Relay contract (onDemandSpv by Summa)\n     * @param _vout        The length-prefixed output vector of the bitcoin tx that triggered the notification.\n     * @param _requestID   The ID of the event request that this notification satisfies. The ID is returned by\n     *                     OnDemandSPV.request and should be locally stored by\n     *                     any contract that makes more than one request.\n     * @param _outputIndex The index of the output in the _vout that triggered\n     *                     the notification. Useful for subscribing to transactions\n     *                     that spend the newly-created UTXO.\n     */\n    function spv(bytes32 _txid, bytes calldata, bytes calldata _vout, uint256 _requestID, uint8, uint8 _outputIndex) external {\n        require(msg.sender == address(onDemandSpv), \"Collateral.spv: Only the onDemandSpv can perform this\");\n\n        require(_txid != bytes32(0), \"Collateral.spv: txid should be non-zero\");\n        require(BytesLib.toBytes32(_vout) != bytes32(0), \"Collateral.spv: vout should be non-zero\");\n\n        bytes memory outputAtIndex = BTCUtils.extractOutputAtIndex(_vout, _outputIndex);\n        uint256 amount = uint(BTCUtils.extractValue(outputAtIndex));\n\n        bytes32 loan = requestsDetails[_requestID].loan;\n\n        require(\n            BytesLib.toBytes32(BTCUtils.extractHash(outputAtIndex)) == requestsDetails[_requestID].p2wshAddress,\n            \"Collateral.spv: Incorrect P2WSH address\"\n        );\n\n        // Check if spv proof is for 6 confirmations (refundRequestIDSixConf or seizeRequestIDSixConf)\n        if (requestsDetails[_requestID].finalized) {\n            // Check that proof for 1 confirmation (refundRequestIDOneConf or seizeRequestIDOneConf) for this specific utxo has already been processed\n            if (txidToOutputToRequestValid[_txid][_outputIndex]) {\n                // Check if spv proof is seizable collateral (seizeRequestIDSixConf)\n                if (requestsDetails[_requestID].seizable) {\n                    // Add amount to Seizable Collateral\n                    collaterals[loan].seizableCollateral = add(collaterals[loan].seizableCollateral, amount);\n\n                    // Subtract amount from Temporary Seizable Collateral\n                    temporaryCollaterals[loan].seizableCollateral = sub(temporaryCollaterals[loan].seizableCollateral, amount);\n                } else {\n                    // Add amount to Refundable Collateral if minSeizableCollateral is satisfied, else add to unaccountedRefundableCollateral\n                    if (collaterals[loan].seizableCollateral >= loans.minSeizableCollateral(loan)) {\n                        collaterals[loan].refundableCollateral = add(collaterals[loan].refundableCollateral, amount);\n                    } else {\n                        collaterals[loan].unaccountedRefundableCollateral = add(collaterals[loan].unaccountedRefundableCollateral, amount);\n                    }\n\n                    // Subtract amount from Temporary Refundable Collateral\n                    temporaryCollaterals[loan].refundableCollateral = sub(temporaryCollaterals[loan].refundableCollateral, amount);\n                }\n\n                // Indicate that spv proof has received 6 confirmations\n                collateralDeposits[loan][txidToOutputIndexToCollateralDepositIndex[_txid][_outputIndex]].finalized = true;\n\n                _updateCollateralDepositFinalizedIndex(loan);\n            }\n            // In the case that proof for 6 confirmations comes before proof for 1 confirmation\n            else {\n                // Ensure amount is greater than 1% of collateral value\n                if (amount >= div(collateral(loan), 100)) {\n                    // Indicate that spv proof for 1 confirmation is no longer needed for this specific request\n                    txidToOutputToRequestValid[_txid][_outputIndex] = true;\n\n                    _setCollateralDeposit(loan, collateralDepositIndex[loan], amount, requestsDetails[_requestID].seizable);\n                    collateralDeposits[loan][collateralDepositIndex[loan]].finalized = true;\n                    txidToOutputIndexToCollateralDepositIndex[_txid][_outputIndex] = collateralDepositIndex[loan];\n                    collateralDepositIndex[loan] = add(collateralDepositIndex[loan], 1);\n\n                    // Check if spv proof is seizable collateral (seizeRequestIDSixConf)\n                    if (requestsDetails[_requestID].seizable) {\n                        // Add amount to Seizable Collateral\n                        collaterals[loan].seizableCollateral = add(collaterals[loan].seizableCollateral, amount);\n                    } else {\n                        // Add amount to Refundable Collateral\n                        collaterals[loan].refundableCollateral = add(collaterals[loan].refundableCollateral, amount);\n                    }\n\n                    _updateExistingRefundableCollateral(loan);\n                    _updateCollateralDepositFinalizedIndex(loan);\n                }\n            }\n        }\n        // Check if spv proof is for 1 confirmation (refundRequestIDOneConf or seizeRequestIDOneConf)\n        else {\n            // Ensure amount is greater than 1% of collateral value\n            if (amount >= div(collateral(loan), 100) && !txidToOutputToRequestValid[_txid][_outputIndex]) {\n                // Indicate that spv proof for 1 confirmation has been received for this specific request\n                txidToOutputToRequestValid[_txid][_outputIndex] = true;\n\n                _setCollateralDeposit(loan, collateralDepositIndex[loan], amount, requestsDetails[_requestID].seizable);\n                txidToOutputIndexToCollateralDepositIndex[_txid][_outputIndex] = collateralDepositIndex[loan];\n                collateralDepositIndex[loan] = add(collateralDepositIndex[loan], 1);\n\n                // Check if spv proof is seizable collateral (seizeRequestIDSixConf)\n                if (requestsDetails[_requestID].seizable) {\n                    // Add amount to Temporary Seizable Collateral\n                    temporaryCollaterals[loan].seizableCollateral = add(temporaryCollaterals[loan].seizableCollateral, amount);\n                } else {\n                    // Add amount to Temporary Refundable Collateral\n                    temporaryCollaterals[loan].refundableCollateral = add(temporaryCollaterals[loan].refundableCollateral, amount);\n                }\n\n                _updateExistingRefundableCollateral(loan);\n            }\n        }\n\n        emit Spv(_txid, _vout, _requestID, _outputIndex);\n    }\n\n    function _setCollateralDeposit (bytes32 loan, uint256 collateralDepositIndex_, uint256 amount_, bool seizable_) private {\n        collateralDeposits[loan][collateralDepositIndex_].amount = amount_;\n        collateralDeposits[loan][collateralDepositIndex_].seizable = seizable_;\n        collateralDeposits[loan][collateralDepositIndex_].expiry = now + ADD_COLLATERAL_EXPIRY;\n    }\n\n    function _updateExistingRefundableCollateral (bytes32 loan) private {\n        if (add(collaterals[loan].seizableCollateral, temporaryCollaterals[loan].seizableCollateral) >= loans.minSeizableCollateral(loan) &&\n            collaterals[loan].unaccountedRefundableCollateral != 0) {\n            collaterals[loan].refundableCollateral = add(collaterals[loan].refundableCollateral, collaterals[loan].unaccountedRefundableCollateral);\n            collaterals[loan].unaccountedRefundableCollateral = 0;\n        }\n    }\n\n    function _updateCollateralDepositFinalizedIndex (bytes32 loan) private {\n        // check if collateralDepositFinalizedIndex should be increased\n        for (uint i = collateralDepositFinalizedIndex[loan]; i <= collateralDepositIndex[loan]; i++) {\n            if (collateralDeposits[loan][i].finalized == true) {\n                collateralDepositFinalizedIndex[loan] = add(collateralDepositFinalizedIndex[loan], 1);\n            } else {\n                break;\n            }\n        }\n    }\n\n    /**\n     * @notice Creates request for Spv Relay\n     * @param loan ID for a Loan\n     */\n    function requestSpv(bytes32 loan) external {\n        require(msg.sender == address(loans), \"Collateral.requestSpv: Only the loans contract can perform this\");\n\n        (, bytes32 refundableP2WSH) = p2wsh.getP2WSH(loan, false); // refundable collateral\n        (, bytes32 seizableP2WSH) = p2wsh.getP2WSH(loan, true); // seizable collateral\n\n        uint256 onePercentOfCollateral = div(collateral(loan), 100);\n\n        uint256 refundRequestIDOneConf = onDemandSpv\n            .request(hex\"\", abi.encodePacked(hex\"220020\", refundableP2WSH), uint64(onePercentOfCollateral), address(this), 1);\n        uint256 refundRequestIDSixConf = onDemandSpv\n            .request(hex\"\", abi.encodePacked(hex\"220020\", refundableP2WSH), uint64(onePercentOfCollateral), address(this), 6);\n\n        uint256 seizeRequestIDOneConf = onDemandSpv\n            .request(hex\"\", abi.encodePacked(hex\"220020\", seizableP2WSH), uint64(onePercentOfCollateral), address(this), 1);\n        uint256 seizeRequestIDSixConf = onDemandSpv\n            .request(hex\"\", abi.encodePacked(hex\"220020\", seizableP2WSH), uint64(onePercentOfCollateral), address(this), 6);\n\n        loanRequests[loan].refundRequestIDOneConf = refundRequestIDOneConf;\n        loanRequests[loan].refundRequestIDSixConf = refundRequestIDSixConf;\n        loanRequests[loan].seizeRequestIDOneConf = seizeRequestIDOneConf;\n        loanRequests[loan].seizeRequestIDSixConf = seizeRequestIDSixConf;\n\n        requestsDetails[refundRequestIDOneConf].loan = loan;\n        requestsDetails[refundRequestIDOneConf].p2wshAddress = refundableP2WSH;\n\n        requestsDetails[refundRequestIDSixConf].loan = loan;\n        requestsDetails[refundRequestIDSixConf].finalized = true;\n        requestsDetails[refundRequestIDSixConf].p2wshAddress = refundableP2WSH;\n\n        finalRequestToInitialRequest[refundRequestIDSixConf] = refundRequestIDOneConf;\n\n        requestsDetails[seizeRequestIDOneConf].loan = loan;\n        requestsDetails[seizeRequestIDOneConf].seizable = true;\n        requestsDetails[seizeRequestIDOneConf].p2wshAddress = seizableP2WSH;\n\n        requestsDetails[seizeRequestIDSixConf].loan = loan;\n        requestsDetails[seizeRequestIDSixConf].seizable = true;\n        requestsDetails[seizeRequestIDSixConf].finalized = true;\n        requestsDetails[seizeRequestIDSixConf].p2wshAddress = seizableP2WSH;\n\n        finalRequestToInitialRequest[seizeRequestIDSixConf] = seizeRequestIDOneConf;\n\n        emit RequestSpv(loan);\n    }\n\n    /**\n     * @notice Cancels request for Spv Relay\n     * @param loan ID for a Loan\n     */\n    function cancelSpv(bytes32 loan) external {\n        require(msg.sender == address(loans), \"Collateral.cancelSpv: Only the loans contract can perform this\");\n\n        require(onDemandSpv.cancelRequest(loanRequests[loan].refundRequestIDOneConf), \"Collateral.cancelSpv: refundRequestIDOneConf failed\");\n        require(onDemandSpv.cancelRequest(loanRequests[loan].refundRequestIDSixConf), \"Collateral.cancelSpv: refundRequestIDSixConf failed\");\n        require(onDemandSpv.cancelRequest(loanRequests[loan].seizeRequestIDOneConf), \"Collateral.cancelSpv: seizeRequestIDOneConf failed\");\n        require(onDemandSpv.cancelRequest(loanRequests[loan].seizeRequestIDSixConf), \"Collateral.cancelSpv: seizeRequestIDSixConf failed\");\n\n        emit CancelSpv(loan);\n    }\n}\n",
  "sourcePath": "/Users/matthewblack/atomicloans/atomicloans-eth-contracts/contracts/Collateral.sol",
  "compiler": {
    "name": "solc",
    "version": "0.5.10+commit.5a6ea5b1.Emscripten.clang"
  },
  "schemaVersion": "3.0.23",
  "updatedAt": "2020-05-04T00:07:51.205Z",
  "networkType": "ethereum",
  "devdoc": {
    "author": "Atomic Loans",
    "methods": {
      "cancelSpv(bytes32)": {
        "params": {
          "loan": "ID for a Loan"
        }
      },
      "collateral(bytes32)": {
        "params": {
          "loan": "The Id of a Loan"
        },
        "return": "Amount of collateral backing the loan (in sats)"
      },
      "constructor": {
        "params": {
          "loans_": "The address of the Loans contract"
        }
      },
      "refundableCollateral(bytes32)": {
        "params": {
          "loan": "The Id of a Loan"
        },
        "return": "Amount of refundable collateral backing the loan (in sats)"
      },
      "requestSpv(bytes32)": {
        "params": {
          "loan": "ID for a Loan"
        }
      },
      "seizableCollateral(bytes32)": {
        "params": {
          "loan": "The Id of a Loan"
        },
        "return": "Amount of seizable collateral backing the loan (in sats)"
      },
      "setCollateral(bytes32,uint256,uint256)": {
        "params": {
          "loan": "ID for a Loan",
          "refundableCollateral_": "Amount of refundable collateral to update in sats",
          "seizableCollateral_": "Amount of seizable collateral to update in sats"
        }
      },
      "setOnDemandSpv(address)": {
        "params": {
          "onDemandSpv_": "Address of OnDemandSpv contract"
        }
      },
      "setP2WSH(address)": {
        "params": {
          "p2wsh_": "Address of P2WSH contract"
        }
      },
      "spv(bytes32,bytes,bytes,uint256,uint8,uint8)": {
        "details": "Handles Bitcoin events that have been validated by the Relay contract (onDemandSpv by Summa)",
        "params": {
          "_outputIndex": "The index of the output in the _vout that triggered                    the notification. Useful for subscribing to transactions                    that spend the newly-created UTXO.",
          "_requestID": "The ID of the event request that this notification satisfies. The ID is returned by                    OnDemandSPV.request and should be locally stored by                    any contract that makes more than one request.",
          "_vout": "The length-prefixed output vector of the bitcoin tx that triggered the notification."
        }
      },
      "temporaryRefundableCollateral(bytes32)": {
        "details": "Represents the amount of refundable collateral that has been locked and only has 1 confirmation, where 6 confirmations hasn't been received yet",
        "params": {
          "loan": "The Id of a Loan"
        },
        "return": "Amount of temporary refundable collateral backing the loan (in sats)"
      },
      "temporarySeizableCollateral(bytes32)": {
        "details": "Represents the amount of seizable collateral that has been locked and only has 1 confirmation, where 6 confirmations hasn't been received yet",
        "params": {
          "loan": "The Id of a Loan"
        },
        "return": "Amount of temporary seizable collateral backing the loan (in sats)"
      }
    },
    "title": "Atomic Loans Collateral Contract"
  },
  "userdoc": {
    "methods": {
      "cancelSpv(bytes32)": {
        "notice": "Cancels request for Spv Relay"
      },
      "collateral(bytes32)": {
        "notice": "Get the Collateral of a Loan"
      },
      "constructor": "Construct a new Collateral contract",
      "refundableCollateral(bytes32)": {
        "notice": "Get the Refundable Collateral of a Loan"
      },
      "requestSpv(bytes32)": {
        "notice": "Creates request for Spv Relay"
      },
      "seizableCollateral(bytes32)": {
        "notice": "Get the Seizable Collateral of a Loan"
      },
      "setCollateral(bytes32,uint256,uint256)": {
        "notice": "Sets current Collateral Amount for a Loan"
      },
      "setOnDemandSpv(address)": {
        "notice": "Sets OnDemandSpv contract address"
      },
      "setP2WSH(address)": {
        "notice": "Sets P2WSH contract"
      },
      "spv(bytes32,bytes,bytes,uint256,uint8,uint8)": {
        "notice": "Consumer for Bitcoin transaction information"
      },
      "temporaryRefundableCollateral(bytes32)": {
        "notice": "Get the Temporary Refundable Collateral of a Loan"
      },
      "temporarySeizableCollateral(bytes32)": {
        "notice": "Get the Temporary Seizable Collateral of a Loan"
      },
      "unsetOnDemandSpv()": {
        "notice": "Unset OnDemandSpv contract address"
      }
    }
  }
}