{
  "contractName": "P2WSH",
  "abi": [
    {
      "constant": true,
      "inputs": [
        {
          "name": "x",
          "type": "uint256"
        }
      ],
      "name": "toBytes",
      "outputs": [
        {
          "name": "b",
          "type": "bytes"
        }
      ],
      "payable": false,
      "stateMutability": "pure",
      "type": "function"
    },
    {
      "constant": true,
      "inputs": [
        {
          "name": "i",
          "type": "uint256"
        }
      ],
      "name": "scriptNumSizeHex",
      "outputs": [
        {
          "name": "",
          "type": "bytes"
        }
      ],
      "payable": false,
      "stateMutability": "pure",
      "type": "function"
    },
    {
      "constant": true,
      "inputs": [
        {
          "name": "num",
          "type": "uint256"
        }
      ],
      "name": "scriptNumEncode",
      "outputs": [
        {
          "name": "",
          "type": "bytes"
        }
      ],
      "payable": false,
      "stateMutability": "pure",
      "type": "function"
    },
    {
      "constant": true,
      "inputs": [
        {
          "name": "i",
          "type": "uint256"
        }
      ],
      "name": "scriptNumSize",
      "outputs": [
        {
          "name": "",
          "type": "uint256"
        }
      ],
      "payable": false,
      "stateMutability": "pure",
      "type": "function"
    },
    {
      "inputs": [
        {
          "name": "loans_",
          "type": "address"
        }
      ],
      "payable": false,
      "stateMutability": "nonpayable",
      "type": "constructor"
    },
    {
      "constant": true,
      "inputs": [
        {
          "name": "loan",
          "type": "bytes32"
        },
        {
          "name": "sez",
          "type": "bool"
        }
      ],
      "name": "getP2WSH",
      "outputs": [
        {
          "name": "",
          "type": "bytes"
        },
        {
          "name": "",
          "type": "bytes32"
        }
      ],
      "payable": false,
      "stateMutability": "view",
      "type": "function"
    }
  ],
  "bytecode": "0x608060405234801561001057600080fd5b506040516116f43803806116f48339818101604052602081101561003357600080fd5b5051600080546001600160a01b039092166001600160a01b031990921691909117905561168f806100656000396000f3fe608060405234801561001057600080fd5b50600436106100575760003560e01c80630e734f631461005c578063775a8f5e14610100578063926f321614610192578063b7575b0c146101af578063f0fb8ee0146101cc575b600080fd5b6100816004803603604081101561007257600080fd5b508035906020013515156101fb565b6040518080602001838152602001828103825284818151815260200191508051906020019080838360005b838110156100c45781810151838201526020016100ac565b50505050905090810190601f1680156100f15780820380516001836020036101000a031916815260200191505b50935050505060405180910390f35b61011d6004803603602081101561011657600080fd5b50356102bf565b6040805160208082528351818301528351919283929083019185019080838360005b8381101561015757818101518382015260200161013f565b50505050905090810190601f1680156101845780820380516001836020036101000a031916815260200191505b509250505060405180910390f35b61011d600480360360208110156101a857600080fd5b5035610351565b61011d600480360360208110156101c557600080fd5b503561036c565b6101e9600480360360208110156101e257600080fd5b503561042a565b60408051918252519081900360200190f35b606060006060610226856102218761021c896102168b61048c565b8a610886565b610c30565b610d1c565b905060006002826040518082805190602001908083835b6020831061025c5780518252601f19909201916020918201910161023d565b51815160209384036101000a60001901801990921691161790526040519190930194509192505080830381855afa15801561029b573d6000803e3d6000fd5b5050506040513d60208110156102b057600080fd5b50519196919550909350505050565b606060006102cc8361042a565b9050806040519080825280601f01601f1916602001820160405280156102f9576020820181803883390190505b50915060005b8181101561034a5780600183030360080260020a848161031b57fe5b0460f81b83828151811061032b57fe5b60200101906001600160f81b031916908160001a9053506001016102ff565b5050919050565b606061036461035f8361042a565b6102bf565b90505b919050565b606060006103798361042a565b90506060610386846102bf565b905060005b600283048110156104225760008282815181106103a457fe5b602001015160f81c60f81b905082600183860303815181106103c257fe5b602001015160f81c60f81b8383815181106103d957fe5b60200101906001600160f81b031916908160001a90535080836001848703038151811061040257fe5b60200101906001600160f81b031916908160001a9053505060010161038b565b509392505050565b6000637fffffff82111561044057506005610367565b627fffff82111561045357506004610367565b617fff82111561046557506003610367565b607f82111561047657506002610367565b811561048457506001610367565b506000610367565b6000805460408051631e1ea5a760e21b815260048101859052905160609384936001600160a01b03169263787a969c9260248083019392829003018186803b1580156104d757600080fd5b505afa1580156104eb573d6000803e3d6000fd5b505050506040513d6000823e601f3d908101601f19168201604052606081101561051457600080fd5b810190808051600160201b81111561052b57600080fd5b8201602081018481111561053e57600080fd5b8151600160201b81118282018710171561055757600080fd5b50509291906020018051600160201b81111561057257600080fd5b8201602081018481111561058557600080fd5b8151600160201b81118282018710171561059e57600080fd5b50509291906020018051600160201b8111156105b957600080fd5b820160208101848111156105cc57600080fd5b8151600160201b8111828201871017156105e557600080fd5b505060008054604080516318a5819360e31b8152600481018d9052905198995091976001600160a01b03909116965063c52c0c989550602480830195506020945090925090829003018186803b15801561063e57600080fd5b505afa158015610652573d6000803e3d6000fd5b505050506040513d602081101561066857600080fd5b50519050606061067782610351565b6106808361036c565b60036002866040518082805190602001908083835b602083106106b45780518252601f199092019160209182019101610695565b51815160209384036101000a60001901801990921691161790526040519190930194509192505080830381855afa1580156106f3573d6000803e3d6000fd5b5050506040513d602081101561070857600080fd5b50516040805160208181019390935281518082038401815290820191829052805190928291908401908083835b602083106107545780518252601f199092019160209182019101610735565b51815160209384036101000a60001901801990921691161790526040519190930194509192505080830381855afa158015610793573d6000803e3d6000fd5b5050506040515160601b6040516020018084805190602001908083835b602083106107cf5780518252601f1990920191602091820191016107b0565b51815160209384036101000a600019018019909216911617905286519190930192860191508083835b602083106108175780518252601f1990920191602091820191016107f8565b5181516020939093036101000a6000190180199091169216919091179052642c5d5daa4560da1b9201918252506bffffffffffffffffffffffff199290921660058301525061222b60f21b601982015260408051808303600419018152601b9092019052979650505050505050565b6000805460408051631e1ea5a760e21b8152600481018790529051606093849384936001600160a01b039091169263787a969c92602480840193919291829003018186803b1580156108d757600080fd5b505afa1580156108eb573d6000803e3d6000fd5b505050506040513d6000823e601f3d908101601f19168201604052606081101561091457600080fd5b810190808051600160201b81111561092b57600080fd5b8201602081018481111561093e57600080fd5b8151600160201b81118282018710171561095757600080fd5b50509291906020018051600160201b81111561097257600080fd5b8201602081018481111561098557600080fd5b8151600160201b81118282018710171561099e57600080fd5b50509291906020018051600160201b8111156109b957600080fd5b820160208101848111156109cc57600080fd5b8151600160201b8111828201871017156109e557600080fd5b5050929190505050509150915060608415610a01575080610a04565b50815b6060610a0f886110e0565b60036002846040518082805190602001908083835b60208310610a435780518252601f199092019160209182019101610a24565b51815160209384036101000a60001901801990921691161790526040519190930194509192505080830381855afa158015610a82573d6000803e3d6000fd5b5050506040513d6020811015610a9757600080fd5b50516040805160208181019390935281518082038401815290820191829052805190928291908401908083835b60208310610ae35780518252601f199092019160209182019101610ac4565b51815160209384036101000a60001901801990921691161790526040519190930194509192505080830381855afa158015610b22573d6000803e3d6000fd5b5050506040515160601b886040516020018080606360f81b81525060010184805190602001908083835b60208310610b6b5780518252601f199092019160209182019101610b4c565b51815160209384036101000a6000190180199092169116179052621daa4560ea1b919093019081526bffffffffffffffffffffffff19861660038201526288ac6760e81b60178201528451601a90910192850191508083835b60208310610be35780518252601f199092019160209182019101610bc4565b5181516020939093036101000a6000190180199091169216919091179052600d60fb1b92019182525060408051808303601e19018152600190920190529c9b505050505050505050505050565b606080610c3c846112d6565b836040516020018080606360f81b81525060010183805190602001908083835b60208310610c7b5780518252601f199092019160209182019101610c5c565b6001836020036101000a03801982511681845116808217855250505050505090500180606760f81b81525060010182805190602001908083835b60208310610cd45780518252601f199092019160209182019101610cb5565b5181516020939093036101000a6000190180199091169216919091179052600d60fb1b92019182525060408051808303601e1901815260019092019052979650505050505050565b600080546040805163d357691d60e01b81526004810186905290516060939283926001600160a01b039091169163d357691d9160248082019260c092909190829003018186803b158015610d6f57600080fd5b505afa158015610d83573d6000803e3d6000fd5b505050506040513d60c0811015610d9957600080fd5b506020810151604091820151600080548451631e1ea5a760e21b8152600481018b905294519396509194506060936001600160a01b039092169263787a969c926024808201939291829003018186803b158015610df557600080fd5b505afa158015610e09573d6000803e3d6000fd5b505050506040513d6000823e601f3d908101601f191682016040526060811015610e3257600080fd5b810190808051600160201b811115610e4957600080fd5b82016020810184811115610e5c57600080fd5b8151600160201b811182820187101715610e7557600080fd5b50509291906020018051600160201b811115610e9057600080fd5b82016020810184811115610ea357600080fd5b8151600160201b811182820187101715610ebc57600080fd5b50509291906020018051600160201b811115610ed757600080fd5b82016020810184811115610eea57600080fd5b8151600160201b811182820187101715610f0357600080fd5b5050929190505050505090506060838360036002856040518082805190602001908083835b60208310610f475780518252601f199092019160209182019101610f28565b51815160209384036101000a60001901801990921691161790526040519190930194509192505080830381855afa158015610f86573d6000803e3d6000fd5b5050506040513d6020811015610f9b57600080fd5b50516040805160208181019390935281518082038401815290820191829052805190928291908401908083835b60208310610fe75780518252601f199092019160209182019101610fc8565b51815160209384036101000a60001901801990921691161790526040519190930194509192505080830381855afa158015611026573d6000803e3d6000fd5b5050506040515160601b88604051602001808067031c1009043be54160c51b815250600801858152602001806b043c9a943be41009043be54160a51b815250600c01848152602001806a21e4d4a1e4d4689a5daa4560aa1b815250600b01836bffffffffffffffffffffffff19166bffffffffffffffffffffffff19168152601401806288ac6760e81b815250600301828051906020019080838360208310610be35780518252601f199092019160209182019101610bc4565b600080546040805163d357691d60e01b8152600481018590529051606093926001600160a01b03169163d357691d9160248083019260c0929190829003018186803b15801561112e57600080fd5b505afa158015611142573d6000803e3d6000fd5b505050506040513d60c081101561115857600080fd5b5051600080546040805163166e1e0960e11b815260048101889052905193945091926001600160a01b0390911691632cdc3c12916024808301926020929190829003018186803b1580156111ab57600080fd5b505afa1580156111bf573d6000803e3d6000fd5b505050506040513d60208110156111d557600080fd5b505190506060826111e583610351565b6111ee8461036c565b60405160200180806504100904454160d51b81525060060184815260200180601160fb1b81525060010183805190602001908083835b602083106112435780518252601f199092019160209182019101611224565b51815160209384036101000a600019018019909216911617905285519190930192850191508083835b6020831061128b5780518252601f19909201916020918201910161126c565b5181516020939093036101000a600019018019909116921691909117905261b17560f01b92019182525060408051808303601d19018152600290920190529998505050505050505050565b6000805460408051631e1ea5a760e21b81526004810185905290516060938493849384936001600160a01b039092169263787a969c92602480840193829003018186803b15801561132657600080fd5b505afa15801561133a573d6000803e3d6000fd5b505050506040513d6000823e601f3d908101601f19168201604052606081101561136357600080fd5b810190808051600160201b81111561137a57600080fd5b8201602081018481111561138d57600080fd5b8151600160201b8111828201871017156113a657600080fd5b50509291906020018051600160201b8111156113c157600080fd5b820160208101848111156113d457600080fd5b8151600160201b8111828201871017156113ed57600080fd5b50509291906020018051600160201b81111561140857600080fd5b8201602081018481111561141b57600080fd5b8151600160201b81118282018710171561143457600080fd5b5050929190505050925092509250606061144e84516102bf565b8461145985516102bf565b8561146486516102bf565b866040516020018080602960f91b81525060010187805190602001908083835b602083106114a35780518252601f199092019160209182019101611484565b51815160209384036101000a600019018019909216911617905289519190930192890191508083835b602083106114eb5780518252601f1990920191602091820191016114cc565b51815160209384036101000a600019018019909216911617905288519190930192880191508083835b602083106115335780518252601f199092019160209182019101611514565b51815160209384036101000a600019018019909216911617905287519190930192870191508083835b6020831061157b5780518252601f19909201916020918201910161155c565b51815160209384036101000a600019018019909216911617905286519190930192860191508083835b602083106115c35780518252601f1990920191602091820191016115a4565b51815160209384036101000a600019018019909216911617905285519190930192850191508083835b6020831061160b5780518252601f1990920191602091820191016115ec565b5181516020939093036101000a60001901801990911692169190911790526129d760f11b92019182525060408051808303601d19018152600290920190529d9c5050505050505050505050505056fea265627a7a723058207d58c4a0117df28353f3dd5f142ee139c0eec743407896df35d40fb3aced6ffb64736f6c634300050a0032",
  "source": "pragma solidity 0.5.10;\n\nimport './Bytes.sol';\nimport './LoansInterface.sol';\n\ncontract P2WSH is Bytes {\n  LoansInterface loans;\n\n  constructor(LoansInterface loans_) public {\n    loans = loans_;\n  }\n\n  function loanPeriodP2WSH(bytes32 loan, bytes memory script) internal view returns (bytes memory) {\n    (, bytes32 secretHashB1, bytes32 secretHashC1, , ,) = loans.secretHashes(loan);\n    (bytes memory borrowerPubKey, ,) = loans.pubKeys(loan);\n\n    bytes memory result = abi.encodePacked(\n      hex\"63820120877ca820\", // OP_IF OP_SIZE OP_PUSHDATA(1) OP_PUSHDATA(32) OP_EQUAL OP_SWAP OP_SHA256 OP_PUSHDATA(32)\n      secretHashB1,\n      hex\"879352877c820120877ca820\", // OP_EQUAL OP_ADD OP_2 OP_EQUAL OP_SWAP OP_SIZE OP_PUSHDATA(1) OP_PUSHDATA(32) OP_EQUAL OP_SWAP OP_SHA256 OP_PUSHDATA(32)\n      secretHashC1,\n      hex\"879352879351a26976a914\", // OP_EQUAL OP_ADD OP_2 OP_EQUAL OP_ADD OP_1 OP_GREATERTHANOREQUAL OP_VERIFY OP_DUP OP_HASH160 OP_PUSHDATA(20)\n      ripemd160(abi.encodePacked(sha256(borrowerPubKey))),\n      hex\"88ac67\", // OP_EQUALVERIFY OP_CHECKSIG OP_ELSE\n      script,\n      hex\"68\" // OP_ENDIF\n    );\n\n    return result;\n  }\n\n  function biddingPeriodSigP2WSH(bytes32 loan) internal view returns (bytes memory) {\n    (bytes memory borrowerPubKey, bytes memory lenderPubKey, bytes memory arbiterPubKey) = loans.pubKeys(loan);\n\n    bytes memory result = abi.encodePacked(\n      hex\"52\", // OP_2\n      toBytes(borrowerPubKey.length),\n      borrowerPubKey,\n      toBytes(lenderPubKey.length),\n      lenderPubKey,\n      toBytes(arbiterPubKey.length),\n      arbiterPubKey,\n      hex\"53ae\" // OP_3 CHECKMULTISIG\n    );\n\n    return result;\n  }\n\n  function biddingPeriodP2WSH(bytes32 loan, bytes memory script) internal view returns (bytes memory) {\n    bytes memory result = abi.encodePacked(\n      hex\"63\", // OP_IF\n      biddingPeriodSigP2WSH(loan),\n      hex\"67\", // OP_ELSE\n      script,\n      hex\"68\" // OP_ENDIF\n    );\n\n    return result;\n  }\n\n  function seizurePeriodSechP2WSH(bytes32 loan) internal view returns (bytes memory) {\n    (bytes32 secretHashA1,,,,,) = loans.secretHashes(loan);\n    uint256 liquidationExpiration = loans.liquidationExpiration(loan);\n\n    bytes memory result = abi.encodePacked(\n      hex\"82012088a820\", // OP_SIZE OP_PUSHDATA(1) OP_PUSHDATA(32) OP_EQUALVERIFY OP_SHA256 OP_PUSHDATA(32)\n      secretHashA1,\n      hex\"88\", // OP_EQUALVERIFY\n      scriptNumSizeHex(liquidationExpiration),\n      scriptNumEncode(liquidationExpiration),\n      hex\"b175\" // OP_CHECKLOCKTIMEVERIFY OP_DROP\n    );\n\n    return result;\n  }\n\n  function seizurePeriodP2WSH(bytes32 loan, bytes memory script, bool sez) internal view returns (bytes memory) {\n    (bytes memory borrowerPubKey, bytes memory lenderPubKey, ) = loans.pubKeys(loan);\n\n    bytes memory pubKey;\n\n    if (sez) {\n      pubKey = lenderPubKey;\n    } else {\n      pubKey = borrowerPubKey;\n    }\n\n    bytes memory result = abi.encodePacked(\n      hex\"63\", // OP_IF\n      seizurePeriodSechP2WSH(loan),\n      hex\"76a914\", // OP_DUP OP_HASH160 OP_PUSHDATA(20)\n      ripemd160(abi.encodePacked(sha256(pubKey))),\n      hex\"88ac67\", // OP_EQUALVERIFY OP_CHECKSIG OP_ELSE\n      script,\n      hex\"68\" // OP_ENDIF\n    );\n\n    return result;\n  }\n\n  function refundablePeriodP2WSH(bytes32 loan) internal view returns (bytes memory) {\n    (bytes memory borrowerPubKey, , ) = loans.pubKeys(loan);\n    uint256 seizureExpiration = loans.seizureExpiration(loan);\n\n    bytes memory result = abi.encodePacked(\n      scriptNumSizeHex(seizureExpiration),\n      scriptNumEncode(seizureExpiration),\n      hex\"b17576a914\", // OP_CHECKLOCKTIMEVERIFY OP_DROP OP_DUP OP_HASH160 OP_PUSHDATA(20)\n      ripemd160(abi.encodePacked(sha256(borrowerPubKey))),\n      hex\"88ac\" // OP_EQUALVERIFY OP_CHECKSIG\n    );\n\n    return result;\n  }\n\n  function getP2WSH(bytes32 loan, bool sez) external view returns (bytes memory, bytes32) {\n    bytes memory script = loanPeriodP2WSH(loan, biddingPeriodP2WSH(loan, seizurePeriodP2WSH(loan, refundablePeriodP2WSH(loan), sez)));\n    bytes32 pubkh = sha256(script);\n\n    return (script, pubkh);\n  }\n}\n",
  "sourcePath": "/Users/matthewblack/atomicloans/atomicloans-eth-contracts/contracts/P2WSH.sol",
  "compiler": {
    "name": "solc",
    "version": "0.5.10+commit.5a6ea5b1.Emscripten.clang"
  },
  "schemaVersion": "3.0.23",
  "updatedAt": "2020-05-04T00:07:51.192Z",
  "networkType": "ethereum",
  "devdoc": {
    "methods": {}
  },
  "userdoc": {
    "methods": {}
  }
}